{
  "contractName": "GBUTManager",
  "abi": [
    {
      "inputs": [
        {
          "internalType": "address",
          "name": "_GBUToken",
          "type": "address"
        },
        {
          "internalType": "address",
          "name": "_admin",
          "type": "address"
        },
        {
          "internalType": "uint256",
          "name": "_incentivelimit",
          "type": "uint256"
        }
      ],
      "payable": false,
      "stateMutability": "nonpayable",
      "type": "constructor"
    },
    {
      "payable": true,
      "stateMutability": "payable",
      "type": "fallback"
    },
    {
      "constant": true,
      "inputs": [],
      "name": "admin",
      "outputs": [
        {
          "internalType": "address",
          "name": "",
          "type": "address"
        }
      ],
      "payable": false,
      "stateMutability": "view",
      "type": "function"
    },
    {
      "constant": true,
      "inputs": [],
      "name": "gbuToken",
      "outputs": [
        {
          "internalType": "contract StandardToken",
          "name": "",
          "type": "address"
        }
      ],
      "payable": false,
      "stateMutability": "view",
      "type": "function"
    },
    {
      "constant": false,
      "inputs": [
        {
          "internalType": "address",
          "name": "_user",
          "type": "address"
        },
        {
          "internalType": "uint256",
          "name": "_incentive",
          "type": "uint256"
        }
      ],
      "name": "putIncentive",
      "outputs": [],
      "payable": false,
      "stateMutability": "nonpayable",
      "type": "function"
    },
    {
      "constant": false,
      "inputs": [
        {
          "internalType": "address",
          "name": "_from",
          "type": "address"
        },
        {
          "internalType": "address",
          "name": "_to",
          "type": "address"
        },
        {
          "internalType": "uint256",
          "name": "_incentive",
          "type": "uint256"
        }
      ],
      "name": "sendIncentive",
      "outputs": [],
      "payable": false,
      "stateMutability": "nonpayable",
      "type": "function"
    },
    {
      "constant": true,
      "inputs": [
        {
          "internalType": "address",
          "name": "_user",
          "type": "address"
        }
      ],
      "name": "viewBalanceOf",
      "outputs": [
        {
          "internalType": "uint256",
          "name": "",
          "type": "uint256"
        }
      ],
      "payable": false,
      "stateMutability": "view",
      "type": "function"
    }
  ],
  "bytecode": "0x608060405234801561001057600080fd5b506040516107053803806107058339818101604052606081101561003357600080fd5b81019080805190602001909291908051906020019092919080519060200190929190505050826000806101000a81548173ffffffffffffffffffffffffffffffffffffffff021916908373ffffffffffffffffffffffffffffffffffffffff16021790555081600160006101000a81548173ffffffffffffffffffffffffffffffffffffffff021916908373ffffffffffffffffffffffffffffffffffffffff16021790555080600281905550505050610613806100f26000396000f3fe60806040526004361061004a5760003560e01c80635772944c1461004f5780637c5b6925146100ca578063a1e56d1e14610125578063c2ca932f1461017c578063f851a440146101e1575b600080fd5b34801561005b57600080fd5b506100c86004803603606081101561007257600080fd5b81019080803573ffffffffffffffffffffffffffffffffffffffff169060200190929190803573ffffffffffffffffffffffffffffffffffffffff16906020019092919080359060200190929190505050610238565b005b3480156100d657600080fd5b50610123600480360360408110156100ed57600080fd5b81019080803573ffffffffffffffffffffffffffffffffffffffff16906020019092919080359060200190929190505050610364565b005b34801561013157600080fd5b5061013a6104b1565b604051808273ffffffffffffffffffffffffffffffffffffffff1673ffffffffffffffffffffffffffffffffffffffff16815260200191505060405180910390f35b34801561018857600080fd5b506101cb6004803603602081101561019f57600080fd5b81019080803573ffffffffffffffffffffffffffffffffffffffff1690602001909291905050506104d6565b6040518082815260200191505060405180910390f35b3480156101ed57600080fd5b506101f66105b8565b604051808273ffffffffffffffffffffffffffffffffffffffff1673ffffffffffffffffffffffffffffffffffffffff16815260200191505060405180910390f35b60025481111561024757600080fd5b6000809054906101000a900473ffffffffffffffffffffffffffffffffffffffff1673ffffffffffffffffffffffffffffffffffffffff166323b872dd8484846040518463ffffffff1660e01b8152600401808473ffffffffffffffffffffffffffffffffffffffff1673ffffffffffffffffffffffffffffffffffffffff1681526020018373ffffffffffffffffffffffffffffffffffffffff1673ffffffffffffffffffffffffffffffffffffffff1681526020018281526020019350505050602060405180830381600087803b15801561032357600080fd5b505af1158015610337573d6000803e3d6000fd5b505050506040513d602081101561034d57600080fd5b810190808051906020019092919050505050505050565b60025481111561037357600080fd5b6000809054906101000a900473ffffffffffffffffffffffffffffffffffffffff1673ffffffffffffffffffffffffffffffffffffffff166323b872dd600160009054906101000a900473ffffffffffffffffffffffffffffffffffffffff1684846040518463ffffffff1660e01b8152600401808473ffffffffffffffffffffffffffffffffffffffff1673ffffffffffffffffffffffffffffffffffffffff1681526020018373ffffffffffffffffffffffffffffffffffffffff1673ffffffffffffffffffffffffffffffffffffffff1681526020018281526020019350505050602060405180830381600087803b15801561047157600080fd5b505af1158015610485573d6000803e3d6000fd5b505050506040513d602081101561049b57600080fd5b8101908080519060200190929190505050505050565b6000809054906101000a900473ffffffffffffffffffffffffffffffffffffffff1681565b60008060009054906101000a900473ffffffffffffffffffffffffffffffffffffffff1673ffffffffffffffffffffffffffffffffffffffff166370a08231836040518263ffffffff1660e01b8152600401808273ffffffffffffffffffffffffffffffffffffffff1673ffffffffffffffffffffffffffffffffffffffff16815260200191505060206040518083038186803b15801561057657600080fd5b505afa15801561058a573d6000803e3d6000fd5b505050506040513d60208110156105a057600080fd5b81019080805190602001909291905050509050919050565b600160009054906101000a900473ffffffffffffffffffffffffffffffffffffffff168156fea265627a7a72315820bd13a94f7ca8cf863ff2b516cdd1964a39b15052e18fd59ad881c58118bd1a2364736f6c63430005100032",
  "source": "pragma solidity >=0.4.19;\n\nimport 'openzeppelin-solidity/contracts/token/ERC20/StandardToken.sol';\n\ncontract GBUTManager {\n\tStandardToken public gbuToken;\t//GBUToken 기능 쓰기 위한 객체\n\taddress public admin;\t//컨트랙을 만든 주인EOA 주소\n\tuint256 private INCENTIVE_LIMIT;\t//1회 인센티브 지급 제한량\n\tconstructor(address _GBUToken, address _admin, uint256 _incentivelimit) public { \t\t\n\t\tgbuToken = StandardToken(_GBUToken); \t\t\n\t\tadmin = _admin;\n\t\tINCENTIVE_LIMIT = _incentivelimit;\n\t\t//gbuToken.approve(_GBUTManager, gbuToken.totalSupply());\t\t\n\t\t//GBUTManager가 admin의 토큰을 사용할 수 있도록 허가한다.\n\t}\n\n\t// REJECT any incoming ether\n\tfunction() payable external {revert();}\t//안에 ; 안붙이면 컴파일 에러\n\n\tmodifier onlyOwner {\t//기능 이름 onlyOnwer\n\t\trequire(msg.sender == admin);\n\t\t_;\t//모디파이어가 실제 실행되는 기능의 실제 코드에 해당되는 부분\n\t}\n\n\t// 특정 사용자에게 인센티브 지급\n\tfunction putIncentive(address _user, uint256 _incentive) public {\n\t\trequire(_incentive <= INCENTIVE_LIMIT); \t\t//인센티브 제한은 일단 고정으로\n\t\tgbuToken.transferFrom(admin, _user, _incentive);\t//admin의 토큰을 사용자에게로 GBUTManager에게 전송 요청\n\t\t//해당 사용자에게 tokenManager가 자신의 토큰을 회수할 수 있도록 허가하라는 이벤트 메시지?\n\t}\n\t//사용자간의 인센티브 전송을 위한 transferFrom필요(GBUTManager에 대해 approve하므로 이쪽에 필요)\n\tfunction sendIncentive(address _from, address _to, uint256 _incentive) public {\n\t\trequire(_incentive <= INCENTIVE_LIMIT); \t\t//인센티브 제한은 일단 고정으로\n\t\tgbuToken.transferFrom(_from, _to, _incentive);\t//_user의 토큰을 사용자에게로 GBUTManager에게 전송 요청\n\t\t//해당 사용자에게 tokenManager가 자신의 토큰을 회수할 수 있도록 허가하라는 이벤트 메시지?\n\t}\t\n\t// 특정 사용자의 토큰 환수 기능 일부만 회수하도록 백엔드에선 요청만큼만 회수 초과만 체크하면 프론트에선 조절\n\t// GBUToken.sol로 이동\n\n\t// 해당 유저의 balance 얻기\n\tfunction viewBalanceOf(address _user) view public returns (uint256){\n\t\treturn gbuToken.balanceOf(_user);\n\t}\n}\n",
  "sourcePath": "C:\\Users\\longk\\Ethereum\\GBUToken\\contracts\\GBUTManager.sol",
  "compiler": {
    "name": "solc",
    "version": "0.5.16+commit.9c3226ce.Emscripten.clang"
  },
  "schemaVersion": "3.4.7",
  "updatedAt": "2022-06-03T14:12:42.753Z",
  "networkType": "ethereum",
  "devdoc": {
    "methods": {}
  },
  "userdoc": {
    "methods": {}
  }
}