{
  "contractName": "GBUTManager",
  "abi": [
    {
      "inputs": [
        {
          "internalType": "address",
          "name": "_GBUToken",
          "type": "address"
        },
        {
          "internalType": "address",
          "name": "_GBUTOwner",
          "type": "address"
        },
        {
          "internalType": "uint256",
          "name": "_incentivelimit",
          "type": "uint256"
        }
      ],
      "payable": false,
      "stateMutability": "nonpayable",
      "type": "constructor"
    },
    {
      "payable": true,
      "stateMutability": "payable",
      "type": "fallback"
    },
    {
      "constant": true,
      "inputs": [],
      "name": "admin",
      "outputs": [
        {
          "internalType": "address",
          "name": "",
          "type": "address"
        }
      ],
      "payable": false,
      "stateMutability": "view",
      "type": "function"
    },
    {
      "constant": true,
      "inputs": [],
      "name": "gbuToken",
      "outputs": [
        {
          "internalType": "contract StandardToken",
          "name": "",
          "type": "address"
        }
      ],
      "payable": false,
      "stateMutability": "view",
      "type": "function"
    }
  ],
  "bytecode": "0x608060405234801561001057600080fd5b5060405161024b38038061024b8339818101604052606081101561003357600080fd5b81019080805190602001909291908051906020019092919080519060200190929190505050826000806101000a81548173ffffffffffffffffffffffffffffffffffffffff021916908373ffffffffffffffffffffffffffffffffffffffff16021790555081600160006101000a81548173ffffffffffffffffffffffffffffffffffffffff021916908373ffffffffffffffffffffffffffffffffffffffff16021790555080600281905550505050610159806100f26000396000f3fe6080604052600436106100295760003560e01c8063a1e56d1e1461002b578063f851a44014610082575b005b34801561003757600080fd5b506100406100d9565b604051808273ffffffffffffffffffffffffffffffffffffffff1673ffffffffffffffffffffffffffffffffffffffff16815260200191505060405180910390f35b34801561008e57600080fd5b506100976100fe565b604051808273ffffffffffffffffffffffffffffffffffffffff1673ffffffffffffffffffffffffffffffffffffffff16815260200191505060405180910390f35b6000809054906101000a900473ffffffffffffffffffffffffffffffffffffffff1681565b600160009054906101000a900473ffffffffffffffffffffffffffffffffffffffff168156fea265627a7a723158204594a97402629e8aefce95117cef0248437e47cd5e8bdfd6a335c3675d0ff3b564736f6c63430005100032",
  "source": "pragma solidity >=0.4.19;\r\n\r\nimport 'openzeppelin-solidity/contracts/token/ERC20/StandardToken.sol';\r\n\r\ncontract GBUTManager {\r\n\r\n\tStandardToken public gbuToken;\r\n\taddress public admin;\r\n\tuint256 private INCENTIVE_LIMIT;//제한량 필요하면 걸어주고 자유롭게 한쪽으로 정하기\r\n\tconstructor(address _GBUToken, address _GBUTOwner, uint256 _incentivelimit) public { \t\t\r\n\t\tgbuToken = StandardToken(_GBUToken); \t\t\r\n\t\tadmin = _GBUTOwner;\r\n\t\tINCENTIVE_LIMIT = _incentivelimit;\t\t\t\t \t\r\n\t} \r\n/*\r\n\tfunction withdraw(uint withdraw_amount) public {\r\n    \t\trequire(withdraw_amount <= 1000);\t//한번에 보낼 수 있는 제한량\r\n\t\t//GBUToken의 트랜스퍼폼 기능 사용\r\n\t\tGBUToken.transferFrom(GBUTOwner, msg.sender, withdraw_amount);\r\n   \t}\r\n*/\r\n\t// REJECT any incoming ether\r\n\tfunction() payable external {}\r\n/*\r\n\t// 특정 사용자에게 인센티브 지급\r\n\tfunction putIncentive(address _user, uint8 _incentive) public{\r\n\t\trequire(_incentive <= INCETIVE_LIMIT);\r\n\t\tgbuToken.transferFrom(GBU_owner, _user,_incentive);\r\n\t}\r\n\t// 특정 사용자의 토큰 환수 기능일부만 회수하도록\r\n\tfunction redemptionAll(address _addr) public{\r\n\t\tuint8 tmp = viewBalanceOf(_user);\t\t// 1. 해당 사용자의 balance가져오기\r\n\t\tgbuToken.transferFrom(_user,GBU_owner,tmp);\t// 2. balance 모두 가져오기\r\n\t}\r\n\t// 해당 유저의 balance 얻기\r\n\tfunction viewBalanceOf(address _user) view public returns (uint256){\r\n\t\treturn gbuToken.balanceOf(_user);\r\n\t}*/\r\n}\r\n",
  "sourcePath": "C:\\Ethereum\\dev\\s\\TOKEN\\GBUToken\\contracts\\GBUTManager.sol",
  "compiler": {
    "name": "solc",
    "version": "0.5.16+commit.9c3226ce.Emscripten.clang"
  },
  "schemaVersion": "3.4.7",
  "updatedAt": "2022-05-13T04:40:41.002Z",
  "networkType": "ethereum",
  "devdoc": {
    "methods": {}
  },
  "userdoc": {
    "methods": {}
  }
}