{
  "contractName": "GBUTManager",
  "abi": [
    {
      "inputs": [
        {
          "internalType": "address",
          "name": "_GBUToken",
          "type": "address"
        },
        {
          "internalType": "address",
          "name": "_admin",
          "type": "address"
        },
        {
          "internalType": "uint256",
          "name": "_incentivelimit",
          "type": "uint256"
        }
      ],
      "payable": false,
      "stateMutability": "nonpayable",
      "type": "constructor"
    },
    {
      "payable": true,
      "stateMutability": "payable",
      "type": "fallback"
    },
    {
      "constant": true,
      "inputs": [],
      "name": "admin",
      "outputs": [
        {
          "internalType": "address",
          "name": "",
          "type": "address"
        }
      ],
      "payable": false,
      "stateMutability": "view",
      "type": "function"
    },
    {
      "constant": true,
      "inputs": [],
      "name": "gbuToken",
      "outputs": [
        {
          "internalType": "contract StandardToken",
          "name": "",
          "type": "address"
        }
      ],
      "payable": false,
      "stateMutability": "view",
      "type": "function"
    },
    {
      "constant": false,
      "inputs": [
        {
          "internalType": "address",
          "name": "_user",
          "type": "address"
        },
        {
          "internalType": "uint256",
          "name": "_incentive",
          "type": "uint256"
        }
      ],
      "name": "putIncentive",
      "outputs": [],
      "payable": false,
      "stateMutability": "nonpayable",
      "type": "function"
    },
    {
      "constant": false,
      "inputs": [
        {
          "internalType": "address",
          "name": "_user",
          "type": "address"
        },
        {
          "internalType": "uint256",
          "name": "_incentive",
          "type": "uint256"
        }
      ],
      "name": "takeBackIncentive",
      "outputs": [],
      "payable": false,
      "stateMutability": "nonpayable",
      "type": "function"
    },
    {
      "constant": true,
      "inputs": [
        {
          "internalType": "address",
          "name": "_user",
          "type": "address"
        }
      ],
      "name": "viewBalanceOf",
      "outputs": [
        {
          "internalType": "uint256",
          "name": "",
          "type": "uint256"
        }
      ],
      "payable": false,
      "stateMutability": "view",
      "type": "function"
    },
    {
      "constant": true,
      "inputs": [
        {
          "internalType": "address",
          "name": "_user",
          "type": "address"
        }
      ],
      "name": "viewUser",
      "outputs": [
        {
          "internalType": "uint256[]",
          "name": "",
          "type": "uint256[]"
        }
      ],
      "payable": false,
      "stateMutability": "view",
      "type": "function"
    },
    {
      "constant": false,
      "inputs": [
        {
          "internalType": "address",
          "name": "_user",
          "type": "address"
        }
      ],
      "name": "addUser",
      "outputs": [],
      "payable": false,
      "stateMutability": "nonpayable",
      "type": "function"
    },
    {
      "constant": false,
      "inputs": [
        {
          "internalType": "address",
          "name": "_user",
          "type": "address"
        }
      ],
      "name": "deleteUser",
      "outputs": [],
      "payable": false,
      "stateMutability": "nonpayable",
      "type": "function"
    }
  ],
  "bytecode": "0x608060405234801561001057600080fd5b5060405161115c38038061115c8339818101604052606081101561003357600080fd5b81019080805190602001909291908051906020019092919080519060200190929190505050826000806101000a81548173ffffffffffffffffffffffffffffffffffffffff021916908373ffffffffffffffffffffffffffffffffffffffff16021790555081600160006101000a81548173ffffffffffffffffffffffffffffffffffffffff021916908373ffffffffffffffffffffffffffffffffffffffff160217905550806002819055506000809054906101000a900473ffffffffffffffffffffffffffffffffffffffff1673ffffffffffffffffffffffffffffffffffffffff1663095ea7b3836000809054906101000a900473ffffffffffffffffffffffffffffffffffffffff1673ffffffffffffffffffffffffffffffffffffffff166318160ddd6040518163ffffffff1660e01b815260040160206040518083038186803b15801561018557600080fd5b505afa158015610199573d6000803e3d6000fd5b505050506040513d60208110156101af57600080fd5b81019080805190602001909291905050506040518363ffffffff1660e01b8152600401808373ffffffffffffffffffffffffffffffffffffffff1673ffffffffffffffffffffffffffffffffffffffff16815260200182815260200192505050602060405180830381600087803b15801561022957600080fd5b505af115801561023d573d6000803e3d6000fd5b505050506040513d602081101561025357600080fd5b810190808051906020019092919050505050505050610ee5806102776000396000f3fe60806040526004361061007b5760003560e01c80639180d73a1161004e5780639180d73a14610223578063a1e56d1e1461027e578063c2ca932f146102d5578063f851a4401461033a5761007b565b8063421b2d8b146100805780635c60f226146100d15780636cc8bda7146101225780637c5b6925146101c8575b600080fd5b34801561008c57600080fd5b506100cf600480360360208110156100a357600080fd5b81019080803573ffffffffffffffffffffffffffffffffffffffff169060200190929190505050610391565b005b3480156100dd57600080fd5b50610120600480360360208110156100f457600080fd5b81019080803573ffffffffffffffffffffffffffffffffffffffff1690602001909291905050506104d4565b005b34801561012e57600080fd5b506101716004803603602081101561014557600080fd5b81019080803573ffffffffffffffffffffffffffffffffffffffff16906020019092919050505061071a565b6040518080602001828103825283818151815260200191508051906020019060200280838360005b838110156101b4578082015181840152602081019050610199565b505050509050019250505060405180910390f35b3480156101d457600080fd5b50610221600480360360408110156101eb57600080fd5b81019080803573ffffffffffffffffffffffffffffffffffffffff16906020019092919080359060200190929190505050610960565b005b34801561022f57600080fd5b5061027c6004803603604081101561024657600080fd5b81019080803573ffffffffffffffffffffffffffffffffffffffff16906020019092919080359060200190929190505050610b07565b005b34801561028a57600080fd5b50610293610d83565b604051808273ffffffffffffffffffffffffffffffffffffffff1673ffffffffffffffffffffffffffffffffffffffff16815260200191505060405180910390f35b3480156102e157600080fd5b50610324600480360360208110156102f857600080fd5b81019080803573ffffffffffffffffffffffffffffffffffffffff169060200190929190505050610da8565b6040518082815260200191505060405180910390f35b34801561034657600080fd5b5061034f610e8a565b604051808273ffffffffffffffffffffffffffffffffffffffff1673ffffffffffffffffffffffffffffffffffffffff16815260200191505060405180910390f35b600160009054906101000a900473ffffffffffffffffffffffffffffffffffffffff1673ffffffffffffffffffffffffffffffffffffffff163373ffffffffffffffffffffffffffffffffffffffff16146103eb57600080fd5b6000809054906101000a900473ffffffffffffffffffffffffffffffffffffffff1673ffffffffffffffffffffffffffffffffffffffff1663095ea7b3826002546040518363ffffffff1660e01b8152600401808373ffffffffffffffffffffffffffffffffffffffff1673ffffffffffffffffffffffffffffffffffffffff16815260200182815260200192505050602060405180830381600087803b15801561049557600080fd5b505af11580156104a9573d6000803e3d6000fd5b505050506040513d60208110156104bf57600080fd5b81019080805190602001909291905050505050565b600160009054906101000a900473ffffffffffffffffffffffffffffffffffffffff1673ffffffffffffffffffffffffffffffffffffffff163373ffffffffffffffffffffffffffffffffffffffff161461052e57600080fd5b6000809054906101000a900473ffffffffffffffffffffffffffffffffffffffff1673ffffffffffffffffffffffffffffffffffffffff1663095ea7b3600160009054906101000a900473ffffffffffffffffffffffffffffffffffffffff1660006040518363ffffffff1660e01b8152600401808373ffffffffffffffffffffffffffffffffffffffff1673ffffffffffffffffffffffffffffffffffffffff16815260200182815260200192505050602060405180830381600087803b1580156105f957600080fd5b505af115801561060d573d6000803e3d6000fd5b505050506040513d602081101561062357600080fd5b810190808051906020019092919050505050610717816000809054906101000a900473ffffffffffffffffffffffffffffffffffffffff1673ffffffffffffffffffffffffffffffffffffffff166370a08231846040518263ffffffff1660e01b8152600401808273ffffffffffffffffffffffffffffffffffffffff1673ffffffffffffffffffffffffffffffffffffffff16815260200191505060206040518083038186803b1580156106d757600080fd5b505afa1580156106eb573d6000803e3d6000fd5b505050506040513d602081101561070157600080fd5b8101908080519060200190929190505050610b07565b50565b6060806000809054906101000a900473ffffffffffffffffffffffffffffffffffffffff1673ffffffffffffffffffffffffffffffffffffffff166370a08231846040518263ffffffff1660e01b8152600401808273ffffffffffffffffffffffffffffffffffffffff1673ffffffffffffffffffffffffffffffffffffffff16815260200191505060206040518083038186803b1580156107bb57600080fd5b505afa1580156107cf573d6000803e3d6000fd5b505050506040513d60208110156107e557600080fd5b81019080805190602001909291905050508160008151811061080357fe5b6020026020010181815250506000809054906101000a900473ffffffffffffffffffffffffffffffffffffffff1673ffffffffffffffffffffffffffffffffffffffff1663dd62ed3e600160009054906101000a900473ffffffffffffffffffffffffffffffffffffffff16856040518363ffffffff1660e01b8152600401808373ffffffffffffffffffffffffffffffffffffffff1673ffffffffffffffffffffffffffffffffffffffff1681526020018273ffffffffffffffffffffffffffffffffffffffff1673ffffffffffffffffffffffffffffffffffffffff1681526020019250505060206040518083038186803b15801561090357600080fd5b505afa158015610917573d6000803e3d6000fd5b505050506040513d602081101561092d57600080fd5b81019080805190602001909291905050508160018151811061094b57fe5b60200260200101818152505080915050919050565b600160009054906101000a900473ffffffffffffffffffffffffffffffffffffffff1673ffffffffffffffffffffffffffffffffffffffff163373ffffffffffffffffffffffffffffffffffffffff16146109ba57600080fd5b6002548111156109c957600080fd5b6000809054906101000a900473ffffffffffffffffffffffffffffffffffffffff1673ffffffffffffffffffffffffffffffffffffffff166323b872dd600160009054906101000a900473ffffffffffffffffffffffffffffffffffffffff1684846040518463ffffffff1660e01b8152600401808473ffffffffffffffffffffffffffffffffffffffff1673ffffffffffffffffffffffffffffffffffffffff1681526020018373ffffffffffffffffffffffffffffffffffffffff1673ffffffffffffffffffffffffffffffffffffffff1681526020018281526020019350505050602060405180830381600087803b158015610ac757600080fd5b505af1158015610adb573d6000803e3d6000fd5b505050506040513d6020811015610af157600080fd5b8101908080519060200190929190505050505050565b600160009054906101000a900473ffffffffffffffffffffffffffffffffffffffff1673ffffffffffffffffffffffffffffffffffffffff163373ffffffffffffffffffffffffffffffffffffffff1614610b6157600080fd5b6000809054906101000a900473ffffffffffffffffffffffffffffffffffffffff1673ffffffffffffffffffffffffffffffffffffffff16638b7d168e83836040518363ffffffff1660e01b8152600401808373ffffffffffffffffffffffffffffffffffffffff1673ffffffffffffffffffffffffffffffffffffffff16815260200182815260200192505050602060405180830381600087803b158015610c0957600080fd5b505af1158015610c1d573d6000803e3d6000fd5b505050506040513d6020811015610c3357600080fd5b8101908080519060200190929190505050506000809054906101000a900473ffffffffffffffffffffffffffffffffffffffff1673ffffffffffffffffffffffffffffffffffffffff166323b872dd83600160009054906101000a900473ffffffffffffffffffffffffffffffffffffffff16846040518463ffffffff1660e01b8152600401808473ffffffffffffffffffffffffffffffffffffffff1673ffffffffffffffffffffffffffffffffffffffff1681526020018373ffffffffffffffffffffffffffffffffffffffff1673ffffffffffffffffffffffffffffffffffffffff1681526020018281526020019350505050602060405180830381600087803b158015610d4357600080fd5b505af1158015610d57573d6000803e3d6000fd5b505050506040513d6020811015610d6d57600080fd5b8101908080519060200190929190505050505050565b6000809054906101000a900473ffffffffffffffffffffffffffffffffffffffff1681565b60008060009054906101000a900473ffffffffffffffffffffffffffffffffffffffff1673ffffffffffffffffffffffffffffffffffffffff166370a08231836040518263ffffffff1660e01b8152600401808273ffffffffffffffffffffffffffffffffffffffff1673ffffffffffffffffffffffffffffffffffffffff16815260200191505060206040518083038186803b158015610e4857600080fd5b505afa158015610e5c573d6000803e3d6000fd5b505050506040513d6020811015610e7257600080fd5b81019080805190602001909291905050509050919050565b600160009054906101000a900473ffffffffffffffffffffffffffffffffffffffff168156fea265627a7a7231582052cf22d354479fcaded7b1b64f7fca7a2072b6eadac98c09e5f97fb388404fc564736f6c63430005100032",
  "source": "pragma solidity >=0.4.19;\r\n\r\nimport 'openzeppelin-solidity/contracts/token/ERC20/StandardToken.sol';\r\n\r\ncontract GBUTManager {\r\n\tStandardToken public gbuToken;\t//GBUToken 기능 쓰기 위한 객체\r\n\taddress public admin;\t//컨트랙을 만든 주인EOA 주소\r\n\tuint256 private INCENTIVE_LIMIT;\t//1회 인센티브 지급 제한량\r\n\tconstructor(address _GBUToken, address _admin, uint256 _incentivelimit) public { \t\t\r\n\t\tgbuToken = StandardToken(_GBUToken); \t\t\r\n\t\tadmin = _admin;\r\n\t\tINCENTIVE_LIMIT = _incentivelimit;\r\n\t\tgbuToken.approve(_admin, gbuToken.totalSupply());\t\t//컨트랙 생성자인 admin에 대해서 전체 토큰만큼의 양으로 토큰 전송 자동 허가\r\n\t}\r\n\r\n\t// REJECT any incoming ether\r\n\tfunction() payable external {revert();}\t//안에 ; 안붙이면 컴파일 에러\r\n\r\n\tmodifier onlyOwner {\t//기능 이름 onlyOnwer\r\n\t\trequire(msg.sender == admin);\r\n\t\t_;\t//모디파이어가 실제 실행되는 기능의 실제 코드에 해당되는 부분\r\n\t}\r\n\r\n\t// 특정 사용자에게 인센티브 지급\r\n\tfunction putIncentive(address _user, uint256 _incentive) public onlyOwner{\r\n\t\trequire(_incentive <= INCENTIVE_LIMIT); \t\t//인센티브 제한은 일단 고정으로\r\n\t\tgbuToken.transferFrom(admin, _user, _incentive);\r\n\t}\r\n\r\n\t// 특정 사용자의 토큰 환수 기능 일부만 회수하도록백엔드에선 요청만큼만 회수 초과만 체크하면 프론트에선 조절\r\n\tfunction takeBackIncentive(address _user, uint256 _incentive) public onlyOwner{  //토큰값 데이터 타입 자연수 uint로\r\n\t\t//transferFrom 안에도 require문 존재하지만 일단 넣으려고 하다 오류 발생으로 일단 제거\r\n\t\tgbuToken.approveReverse(_user, _incentive);\r\n\t\tgbuToken.transferFrom(_user, admin, _incentive);\t//_incentive 가져오기\r\n\t}\r\n\t// 해당 유저의 balance 얻기\r\n\tfunction viewBalanceOf(address _user) view public returns (uint256){\r\n\t\treturn gbuToken.balanceOf(_user);\r\n\t}\r\n // 참여 사용자들에 대한 목록 관리 기능 \r\n\tfunction viewUser(address _user) view public returns (uint256[] memory){\r\n\t\t//유저에 대한 추가 정보(주어진 인센티브량gbuToken.balanceOf(_user), 더 허용된 인센티브량gbuToken.allowance(admin, _user) 등 원하는 정보 추가할것)\r\n\t\tuint256[] memory userinfo;\r\n\t\tuserinfo[0] = gbuToken.balanceOf(_user);\r\n\t\tuserinfo[1] = gbuToken.allowance(admin, _user);\r\n\t\treturn userinfo;\r\n\t}\r\n\r\n    // 사용자 추가/삭제 기능 프론트관련으로. 백엔드에선 허가와 토큰 환수 모두만? 기능 확인하는 방법??\r\n\t//사용자 추가기능\r\n\tfunction addUser(address _user) public onlyOwner{\r\n\t\tgbuToken.approve(_user, INCENTIVE_LIMIT);\t//인센티브 제한만큼 허가\r\n\t\t//가스 필요하니 소량의 이더 제공 포함 필요?\r\n\t\t//eth.sendTransaction({from: eth.accounts[0], to: _user, value: web3.toWei(10, \"ether\")})\r\n\r\n\t}\r\n\t//사용자 삭제 기능\r\n\tfunction deleteUser(address _user) public onlyOwner{\r\n\t\tgbuToken.approve(admin, 0);\t//허가량 0으로 \r\n\t\ttakeBackIncentive(_user, gbuToken.balanceOf(_user));\t//위 구현된 기능 사용해 전체 토큰 회수\r\n\t}\r\n}\r\n",
  "sourcePath": "C:\\Ethereum\\dev\\s\\TOKEN\\GBUToken\\contracts\\GBUTManager.sol",
  "compiler": {
    "name": "solc",
    "version": "0.5.16+commit.9c3226ce.Emscripten.clang"
  },
  "schemaVersion": "3.4.7",
  "updatedAt": "2022-05-19T16:19:19.861Z",
  "devdoc": {
    "methods": {}
  },
  "userdoc": {
    "methods": {}
  }
}