{
  "contractName": "GBUTManager",
  "abi": [
    {
      "inputs": [
        {
          "internalType": "address",
          "name": "_GBUTManager",
          "type": "address"
        },
        {
          "internalType": "address",
          "name": "_GBUToken",
          "type": "address"
        },
        {
          "internalType": "address",
          "name": "_admin",
          "type": "address"
        },
        {
          "internalType": "uint256",
          "name": "_incentivelimit",
          "type": "uint256"
        }
      ],
      "payable": false,
      "stateMutability": "nonpayable",
      "type": "constructor"
    },
    {
      "payable": true,
      "stateMutability": "payable",
      "type": "fallback"
    },
    {
      "constant": true,
      "inputs": [],
      "name": "admin",
      "outputs": [
        {
          "internalType": "address",
          "name": "",
          "type": "address"
        }
      ],
      "payable": false,
      "stateMutability": "view",
      "type": "function"
    },
    {
      "constant": true,
      "inputs": [],
      "name": "gbuToken",
      "outputs": [
        {
          "internalType": "contract StandardToken",
          "name": "",
          "type": "address"
        }
      ],
      "payable": false,
      "stateMutability": "view",
      "type": "function"
    },
    {
      "constant": false,
      "inputs": [
        {
          "internalType": "address",
          "name": "_user",
          "type": "address"
        },
        {
          "internalType": "uint256",
          "name": "_incentive",
          "type": "uint256"
        }
      ],
      "name": "putIncentive",
      "outputs": [],
      "payable": false,
      "stateMutability": "nonpayable",
      "type": "function"
    },
    {
      "constant": true,
      "inputs": [
        {
          "internalType": "address",
          "name": "_user",
          "type": "address"
        }
      ],
      "name": "viewBalanceOf",
      "outputs": [
        {
          "internalType": "uint256",
          "name": "",
          "type": "uint256"
        }
      ],
      "payable": false,
      "stateMutability": "view",
      "type": "function"
    },
    {
      "constant": true,
      "inputs": [
        {
          "internalType": "address",
          "name": "_user",
          "type": "address"
        }
      ],
      "name": "viewUser",
      "outputs": [
        {
          "internalType": "uint256[]",
          "name": "",
          "type": "uint256[]"
        }
      ],
      "payable": false,
      "stateMutability": "view",
      "type": "function"
    },
    {
      "constant": false,
      "inputs": [
        {
          "internalType": "address",
          "name": "_user",
          "type": "address"
        }
      ],
      "name": "addUser",
      "outputs": [],
      "payable": false,
      "stateMutability": "nonpayable",
      "type": "function"
    }
  ],
  "bytecode": "0x608060405234801561001057600080fd5b50604051610b79380380610b798339818101604052608081101561003357600080fd5b8101908080519060200190929190805190602001909291908051906020019092919080519060200190929190505050826000806101000a81548173ffffffffffffffffffffffffffffffffffffffff021916908373ffffffffffffffffffffffffffffffffffffffff16021790555081600160006101000a81548173ffffffffffffffffffffffffffffffffffffffff021916908373ffffffffffffffffffffffffffffffffffffffff160217905550806002819055506000809054906101000a900473ffffffffffffffffffffffffffffffffffffffff1673ffffffffffffffffffffffffffffffffffffffff1663095ea7b3856000809054906101000a900473ffffffffffffffffffffffffffffffffffffffff1673ffffffffffffffffffffffffffffffffffffffff166318160ddd6040518163ffffffff1660e01b815260040160206040518083038186803b15801561018f57600080fd5b505afa1580156101a3573d6000803e3d6000fd5b505050506040513d60208110156101b957600080fd5b81019080805190602001909291905050506040518363ffffffff1660e01b8152600401808373ffffffffffffffffffffffffffffffffffffffff1673ffffffffffffffffffffffffffffffffffffffff16815260200182815260200192505050602060405180830381600087803b15801561023357600080fd5b505af1158015610247573d6000803e3d6000fd5b505050506040513d602081101561025d57600080fd5b810190808051906020019092919050505050505050506108f7806102826000396000f3fe6080604052600436106100555760003560e01c8063421b2d8b1461005a5780636cc8bda7146100ab5780637c5b692514610151578063a1e56d1e146101ac578063c2ca932f14610203578063f851a44014610268575b600080fd5b34801561006657600080fd5b506100a96004803603602081101561007d57600080fd5b81019080803573ffffffffffffffffffffffffffffffffffffffff1690602001909291905050506102bf565b005b3480156100b757600080fd5b506100fa600480360360208110156100ce57600080fd5b81019080803573ffffffffffffffffffffffffffffffffffffffff169060200190929190505050610402565b6040518080602001828103825283818151815260200191508051906020019060200280838360005b8381101561013d578082015181840152602081019050610122565b505050509050019250505060405180910390f35b34801561015d57600080fd5b506101aa6004803603604081101561017457600080fd5b81019080803573ffffffffffffffffffffffffffffffffffffffff16906020019092919080359060200190929190505050610648565b005b3480156101b857600080fd5b506101c1610795565b604051808273ffffffffffffffffffffffffffffffffffffffff1673ffffffffffffffffffffffffffffffffffffffff16815260200191505060405180910390f35b34801561020f57600080fd5b506102526004803603602081101561022657600080fd5b81019080803573ffffffffffffffffffffffffffffffffffffffff1690602001909291905050506107ba565b6040518082815260200191505060405180910390f35b34801561027457600080fd5b5061027d61089c565b604051808273ffffffffffffffffffffffffffffffffffffffff1673ffffffffffffffffffffffffffffffffffffffff16815260200191505060405180910390f35b600160009054906101000a900473ffffffffffffffffffffffffffffffffffffffff1673ffffffffffffffffffffffffffffffffffffffff163373ffffffffffffffffffffffffffffffffffffffff161461031957600080fd5b6000809054906101000a900473ffffffffffffffffffffffffffffffffffffffff1673ffffffffffffffffffffffffffffffffffffffff1663095ea7b3826002546040518363ffffffff1660e01b8152600401808373ffffffffffffffffffffffffffffffffffffffff1673ffffffffffffffffffffffffffffffffffffffff16815260200182815260200192505050602060405180830381600087803b1580156103c357600080fd5b505af11580156103d7573d6000803e3d6000fd5b505050506040513d60208110156103ed57600080fd5b81019080805190602001909291905050505050565b6060806000809054906101000a900473ffffffffffffffffffffffffffffffffffffffff1673ffffffffffffffffffffffffffffffffffffffff166370a08231846040518263ffffffff1660e01b8152600401808273ffffffffffffffffffffffffffffffffffffffff1673ffffffffffffffffffffffffffffffffffffffff16815260200191505060206040518083038186803b1580156104a357600080fd5b505afa1580156104b7573d6000803e3d6000fd5b505050506040513d60208110156104cd57600080fd5b8101908080519060200190929190505050816000815181106104eb57fe5b6020026020010181815250506000809054906101000a900473ffffffffffffffffffffffffffffffffffffffff1673ffffffffffffffffffffffffffffffffffffffff1663dd62ed3e600160009054906101000a900473ffffffffffffffffffffffffffffffffffffffff16856040518363ffffffff1660e01b8152600401808373ffffffffffffffffffffffffffffffffffffffff1673ffffffffffffffffffffffffffffffffffffffff1681526020018273ffffffffffffffffffffffffffffffffffffffff1673ffffffffffffffffffffffffffffffffffffffff1681526020019250505060206040518083038186803b1580156105eb57600080fd5b505afa1580156105ff573d6000803e3d6000fd5b505050506040513d602081101561061557600080fd5b81019080805190602001909291905050508160018151811061063357fe5b60200260200101818152505080915050919050565b60025481111561065757600080fd5b6000809054906101000a900473ffffffffffffffffffffffffffffffffffffffff1673ffffffffffffffffffffffffffffffffffffffff166323b872dd600160009054906101000a900473ffffffffffffffffffffffffffffffffffffffff1684846040518463ffffffff1660e01b8152600401808473ffffffffffffffffffffffffffffffffffffffff1673ffffffffffffffffffffffffffffffffffffffff1681526020018373ffffffffffffffffffffffffffffffffffffffff1673ffffffffffffffffffffffffffffffffffffffff1681526020018281526020019350505050602060405180830381600087803b15801561075557600080fd5b505af1158015610769573d6000803e3d6000fd5b505050506040513d602081101561077f57600080fd5b8101908080519060200190929190505050505050565b6000809054906101000a900473ffffffffffffffffffffffffffffffffffffffff1681565b60008060009054906101000a900473ffffffffffffffffffffffffffffffffffffffff1673ffffffffffffffffffffffffffffffffffffffff166370a08231836040518263ffffffff1660e01b8152600401808273ffffffffffffffffffffffffffffffffffffffff1673ffffffffffffffffffffffffffffffffffffffff16815260200191505060206040518083038186803b15801561085a57600080fd5b505afa15801561086e573d6000803e3d6000fd5b505050506040513d602081101561088457600080fd5b81019080805190602001909291905050509050919050565b600160009054906101000a900473ffffffffffffffffffffffffffffffffffffffff168156fea265627a7a72315820f1926845eb5077ee31185a6d6303b4e0d2f19e6bdfa2787fb45b0f192a15189d64736f6c63430005100032",
  "source": "pragma solidity >=0.4.19;\r\n\r\nimport 'openzeppelin-solidity/contracts/token/ERC20/StandardToken.sol';\r\n\r\ncontract GBUTManager {\r\n\tStandardToken public gbuToken;\t//GBUToken 기능 쓰기 위한 객체\r\n\taddress public admin;\t//컨트랙을 만든 주인EOA 주소\r\n\tuint256 private INCENTIVE_LIMIT;\t//1회 인센티브 지급 제한량\r\n\tconstructor(address _GBUTManager, address _GBUToken, address _admin, uint256 _incentivelimit) public { \t\t\r\n\t\tgbuToken = StandardToken(_GBUToken); \t\t\r\n\t\tadmin = _admin;\r\n\t\tINCENTIVE_LIMIT = _incentivelimit;\r\n\t\tgbuToken.approve(_GBUTManager, gbuToken.totalSupply());\t\t\r\n\t\t//GBUTManager가 admin의 토큰을 사용할 수 있도록 허가한다.\r\n\t}\r\n\r\n\t// REJECT any incoming ether\r\n\tfunction() payable external {revert();}\t//안에 ; 안붙이면 컴파일 에러\r\n\r\n\tmodifier onlyOwner {\t//기능 이름 onlyOnwer\r\n\t\trequire(msg.sender == admin);\r\n\t\t_;\t//모디파이어가 실제 실행되는 기능의 실제 코드에 해당되는 부분\r\n\t}\r\n\r\n\t// 특정 사용자에게 인센티브 지급\r\n\tfunction putIncentive(address _user, uint256 _incentive) public {\r\n\t\trequire(_incentive <= INCENTIVE_LIMIT); \t\t//인센티브 제한은 일단 고정으로\r\n\t\tgbuToken.transferFrom(admin, _user, _incentive);\r\n\t\t//해당 사용자에게 tokenManager가 자신의 토큰을 회수할 수 있도록 허가하라는 이벤트 메시지?\r\n\t}\r\n\r\n\t// 특정 사용자의 토큰 환수 기능 일부만 회수하도록 백엔드에선 요청만큼만 회수 초과만 체크하면 프론트에선 조절\r\n\t// GBUToken.sol로 이동\r\n\r\n\t// 해당 유저의 balance 얻기\r\n\tfunction viewBalanceOf(address _user) view public returns (uint256){\r\n\t\treturn gbuToken.balanceOf(_user);\r\n\t}\r\n\r\n // 참여 사용자들에 대한 목록 관리 기능 \r\n\tfunction viewUser(address _user) view public returns (uint256[] memory){\r\n\t\t//유저에 대한 추가 정보(주어진 인센티브량gbuToken.balanceOf(_user), 더 허용된 인센티브량gbuToken.allowance(admin, _user) 등 원하는 정보 추가할것)\r\n\t\tuint256[] memory userinfo;\r\n\t\tuserinfo[0] = gbuToken.balanceOf(_user);\r\n\t\tuserinfo[1] = gbuToken.allowance(admin, _user);\r\n\t\treturn userinfo;\r\n\t}\r\n\r\n    // 사용자 추가/삭제 기능 프론트관련으로. 백엔드에선 허가와 토큰 환수 모두만? 기능 확인하는 방법??\r\n\t//사용자 추가기능\r\n\tfunction addUser(address _user) public onlyOwner{\r\n\t\tgbuToken.approve(_user, INCENTIVE_LIMIT);\t//인센티브 제한만큼 허가\r\n\t\t//가스 필요하니 소량의 이더 제공 포함 필요?\r\n\t\t//eth.sendTransaction({from: eth.accounts[0], to: _user, value: web3.toWei(10, \"ether\")})\r\n\r\n\t}\r\n\t//사용자 삭제 기능\r\n\t/*function deleteUser(address _user) public onlyOwner{\r\n\t\tgbuToken.approve(admin, INCENTIVE_LIMIT);\r\n\t}*/\r\n}\r\n",
  "sourcePath": "C:\\Ethereum\\dev\\s\\TOKEN\\GBUToken\\contracts\\GBUTManager.sol",
  "compiler": {
    "name": "solc",
    "version": "0.5.16+commit.9c3226ce.Emscripten.clang"
  },
  "schemaVersion": "3.4.7",
  "updatedAt": "2022-05-20T05:58:34.755Z",
  "networkType": "ethereum",
  "devdoc": {
    "methods": {}
  },
  "userdoc": {
    "methods": {}
  }
}