{
  "contractName": "GBUTManager",
  "abi": [
    {
      "inputs": [
        {
          "internalType": "address",
          "name": "_GBUToken",
          "type": "address"
        },
        {
          "internalType": "address",
          "name": "_GBUTOwner",
          "type": "address"
        }
      ],
      "payable": false,
      "stateMutability": "nonpayable",
      "type": "constructor"
    },
    {
      "payable": true,
      "stateMutability": "payable",
      "type": "fallback"
    },
    {
      "constant": true,
      "inputs": [],
      "name": "GBUTOwner",
      "outputs": [
        {
          "internalType": "address",
          "name": "",
          "type": "address"
        }
      ],
      "payable": false,
      "stateMutability": "view",
      "type": "function"
    },
    {
      "constant": true,
      "inputs": [],
      "name": "GBUToken",
      "outputs": [
        {
          "internalType": "contract StandardToken",
          "name": "",
          "type": "address"
        }
      ],
      "payable": false,
      "stateMutability": "view",
      "type": "function"
    },
    {
      "constant": false,
      "inputs": [
        {
          "internalType": "uint256",
          "name": "withdraw_amount",
          "type": "uint256"
        }
      ],
      "name": "withdraw",
      "outputs": [],
      "payable": false,
      "stateMutability": "nonpayable",
      "type": "function"
    }
  ],
  "bytecode": "0x608060405234801561001057600080fd5b506040516103ce3803806103ce8339818101604052604081101561003357600080fd5b810190808051906020019092919080519060200190929190505050816000806101000a81548173ffffffffffffffffffffffffffffffffffffffff021916908373ffffffffffffffffffffffffffffffffffffffff16021790555080600160006101000a81548173ffffffffffffffffffffffffffffffffffffffff021916908373ffffffffffffffffffffffffffffffffffffffff16021790555050506102ee806100e06000396000f3fe6080604052600436106100345760003560e01c80632e1a7d4d146100395780634ab81ae9146100745780637ba66fb8146100cb575b600080fd5b34801561004557600080fd5b506100726004803603602081101561005c57600080fd5b8101908080359060200190929190505050610122565b005b34801561008057600080fd5b5061008961026e565b604051808273ffffffffffffffffffffffffffffffffffffffff1673ffffffffffffffffffffffffffffffffffffffff16815260200191505060405180910390f35b3480156100d757600080fd5b506100e0610293565b604051808273ffffffffffffffffffffffffffffffffffffffff1673ffffffffffffffffffffffffffffffffffffffff16815260200191505060405180910390f35b6103e881111561013157600080fd5b6000809054906101000a900473ffffffffffffffffffffffffffffffffffffffff1673ffffffffffffffffffffffffffffffffffffffff166323b872dd600160009054906101000a900473ffffffffffffffffffffffffffffffffffffffff1633846040518463ffffffff1660e01b8152600401808473ffffffffffffffffffffffffffffffffffffffff1673ffffffffffffffffffffffffffffffffffffffff1681526020018373ffffffffffffffffffffffffffffffffffffffff1673ffffffffffffffffffffffffffffffffffffffff1681526020018281526020019350505050602060405180830381600087803b15801561022f57600080fd5b505af1158015610243573d6000803e3d6000fd5b505050506040513d602081101561025957600080fd5b81019080805190602001909291905050505050565b6000809054906101000a900473ffffffffffffffffffffffffffffffffffffffff1681565b600160009054906101000a900473ffffffffffffffffffffffffffffffffffffffff168156fea265627a7a723158201b1046040e170486d472fcdac4212bb8679cde15edafb44f0a0214cf042df6d764736f6c63430005100032",
  "source": "pragma solidity >=0.4.19;\r\n\r\nimport 'openzeppelin-solidity/contracts/token/ERC20/StandardToken.sol';\r\n\r\ncontract GBUTManager {\r\n\r\n\tStandardToken public GBUToken;\r\n\taddress public GBUTOwner;\r\n\tconstructor(address _GBUToken, address _GBUTOwner) public {\r\n\t\tGBUToken = StandardToken(_GBUToken);\r\n\t\tGBUTOwner = _GBUTOwner;\r\n\t}\r\n\r\n\tfunction withdraw(uint withdraw_amount) public {\r\n    \trequire(withdraw_amount <= 1000);\t//한번에 보낼 수 있는 제한량\r\n\r\n\t\t//GBUToken의 트랜스퍼폼 기능 사용\r\n\t\tGBUToken.transferFrom(GBUTOwner, msg.sender, withdraw_amount);\r\n    }\r\n\r\n\t// REJECT any incoming ether\r\n\tfunction () external payable { revert(); }\r\n\r\n//- 특정 사용자에게 인센티브 지급하는 기능 withdraw 이용?\r\n\r\n//- 특정 사용자의 토큰 환수 기능 revert() 기능 이용?\r\n\r\n//- 참여 사용자들에 대한 목록 관리 기능\r\n\r\n//- 사용자 추가/삭제 기능\r\n\r\n//- 참여 user들 중 인센티브 발급 받은 user들을 따로 관리하는 기능(고민요망)\r\n\r\n}",
  "sourcePath": "C:\\Ethereum\\dev\\GBUToken\\contracts\\GBUTManager.sol",
  "compiler": {
    "name": "solc",
    "version": "0.5.16+commit.9c3226ce.Emscripten.clang"
  },
  "schemaVersion": "3.4.7",
  "updatedAt": "2022-05-08T12:53:26.066Z",
  "networkType": "ethereum",
  "devdoc": {
    "methods": {}
  },
  "userdoc": {
    "methods": {}
  }
}